:100000000C945D000C9485000C9485000C94850084
:100010000C9485000C9485000C9485000C9485004C
:100020000C9485000C9485000C9485000C9485003C
:100030000C9485000C9485000C9485000C9485002C
:100040000C9452020C9485000C94C2020C949C02F5
:100050000C9485000C9485000C9485000C9485000C
:100060000C9485000C9485000000000024002700FB
:100070002A0000000000250028002B0004040404CE
:100080000404040402020202020203030303030342
:10009000010204081020408001020408102001021F
:1000A00004081020000000080002010000030407FB
:1000B0000000000000000000C40311241FBECFEFA9
:1000C000D8E0DEBFCDBF11E0A0E0B1E0E2EFF7E0A5
:1000D00002C005900D92A037B107D9F722E0A0E742
:1000E000B1E001C01D92A631B207E1F710E0CDE505
:1000F000D0E004C02197FE010E94F103CC35D10766
:10010000C9F70E94F4020C94F7030C940000E1EB91
:10011000F0E02491EDE9F0E09491E9E8F0E0E49179
:10012000EE23C9F0222339F0233001F1A8F4213065
:1001300019F1223029F1F0E0EE0FFF1FEE58FF4FCA
:10014000A591B4912FB7F894EC91811126C09095A8
:100150009E239C932FBF08952730A9F02830C9F023
:10016000243049F7209180002F7D03C0209180002A
:100170002F7720938000DFCF24B52F7724BDDBCFEE
:1001800024B52F7DFBCF2091B0002F772093B000B6
:10019000D2CF2091B0002F7DF9CF9E2BDACF3FB781
:1001A000F8948091750190917601A0917701B091BA
:1001B000780126B5A89B05C02F3F19F00196A11D17
:1001C000B11D3FBFBA2FA92F982F8827BC01CD01A1
:1001D000620F711D811D911D42E0660F771F881F00
:1001E000991F4A95D1F708958F929F92AF92BF922F
:1001F000CF92DF92EF92FF920E94CF004B015C0101
:1002000088EEC82E83E0D82EE12CF12C0E94CF007E
:10021000681979098A099B09683E7340810591052F
:10022000A8F321E0C21AD108E108F10888EE880E8F
:1002300083E0981EA11CB11CC114D104E104F10497
:1002400029F7FF90EF90DF90CF90BF90AF909F90F5
:100250008F900895AF92BF92CF92DF92EF92FF926C
:100260000F931F93CF93DF936C017B018B01040FDE
:10027000151FEB015E01AE18BF08C017D10759F07A
:100280006991D601ED91FC910190F081E02DC601BC
:100290000995892B79F7C501DF91CF911F910F91B6
:1002A000FF90EF90DF90CF90BF90AF900895FC014A
:1002B000538D448D252F30E0842F90E0821B930BCB
:1002C000541710F0CF96089501970895FC01918D71
:1002D000828D981761F0A28DAE0FBF2FB11D5D9674
:1002E0008C91928D9F5F9F73928F90E008958FEF16
:1002F0009FEF0895FC01918D828D981731F0828DCA
:10030000E80FF11D858D90E008958FEF9FEF089520
:10031000FC01918D228D892F90E0805C9F4F821B84
:1003200091098F739927089589E791E00E948801C8
:1003300021E0892B09F420E0822F089580E090E0ED
:10034000892B29F00E94940181110C9400000895DA
:10035000FC01A48DA80FB92FB11DA35ABF4F2C913A
:10036000848D90E001968F739927848FA689B78931
:100370002C93A089B1898C91837080648C93938D28
:10038000848D981306C00288F389E02D80818F7DCB
:1003900080830895EF92FF920F931F93CF93DF9383
:1003A000EC0181E0888F9B8D8C8D98131AC0E889B1
:1003B000F989808185FF15C09FB7F894EE89FF8980
:1003C0006083E889F98980818370806480839FBF1E
:1003D00081E090E0DF91CF911F910F91FF90EF901E
:1003E0000895F62E0B8D10E00F5F1F4F0F7311272E
:1003F000E02E8C8D8E110CC00FB607FCFACFE88969
:10040000F989808185FFF5CFCE010E94A801F1CF47
:10041000EB8DEC0FFD2FF11DE35AFF4FF0829FB7DC
:10042000F8940B8FEA89FB8980818062CFCFCF93CC
:10043000DF93EC01888D8823B9F0AA89BB89E8890C
:10044000F9898C9185FD03C0808186FD0DC00FB6B2
:1004500007FCF7CF8C9185FFF2CF808185FFEDCF30
:10046000CE010E94A801E9CFDF91CF910895FC0150
:1004700001900020E9F73197AF01481B590BBC01EF
:1004800089E791E00C942A01CF93DF930E94370211
:10049000EC0182E191E00E9437028C0F9D1FDF91F9
:1004A000CF9108951F920F920FB60F9211242F93A0
:1004B0003F938F939F93AF93BF93809171019091DE
:1004C0007201A0917301B09174013091700123E029
:1004D000230F2D3758F50196A11DB11D20937001F2
:1004E0008093710190937201A0937301B093740192
:1004F0008091750190917601A0917701B09178017A
:100500000196A11DB11D8093750190937601A09372
:100510007701B0937801BF91AF919F918F913F91F7
:100520002F910F900FBE0F901F90189526E8230F64
:100530000296A11DB11DD2CF1F920F920FB60F923E
:1005400011242F933F934F935F936F937F938F93D8
:100550009F93AF93BF93EF93FF9389E791E00E943E
:10056000A801FF91EF91BF91AF919F918F917F91E2
:100570006F915F914F913F912F910F900FBE0F9010
:100580001F9018951F920F920FB60F9211242F9360
:100590008F939F93EF93FF93E0918901F0918A01EC
:1005A0008081E0918F01F091900182FD1BC09081CC
:1005B000809192018F5F8F7320919301821741F098
:1005C000E0919201F0E0E758FE4F958F8093920101
:1005D000FF91EF919F918F912F910F900FBE0F90F0
:1005E0001F9018958081F4CFCF93DF93CDB7DEB7FE
:1005F000A1970FB6F894DEBF0FBECDBF789484B537
:10060000826084BD84B5816084BD85B5826085BD0E
:1006100085B5816085BD80916E00816080936E009C
:10062000109281008091810082608093810080918E
:10063000810081608093810080918000816080933F
:1006400080008091B10084608093B1008091B000FF
:1006500081608093B00080917A00846080937A00FA
:1006600080917A00826080937A0080917A00816024
:1006700080937A0080917A00806880937A0010924B
:10068000C100E0918901F0918A0182E08083E091CC
:100690008501F09186011082E0918701F091880137
:1006A00080E1808310929101E0918D01F0918E01A3
:1006B00086E08083E0918B01F0918C0180818061E4
:1006C0008083E0918B01F0918C0180818860808330
:1006D000E0918B01F0918C01808180688083E091B2
:1006E0008B01F0918C0180818F7D8083EDE9F0E0BA
:1006F0002491E9E8F0E08491882399F090E0880F54
:10070000991FFC01E859FF4FA591B491FC01EE58E7
:10071000FF4F859194918FB7F894EC91E22BEC9375
:100720008FBF85E191E00E94440284E391E00E9442
:10073000370219A283E388A381E38F8FCE014F96FE
:100740000E94370287E491E00E94440200E010E03A
:1007500081E00E94870081E691E00E9444020E94AD
:10076000F40080E00E94870088E691E00E94440245
:100770000E94F4000115110559F30E949401882389
:1007800039F30E940000E4CFE9E7F1E0138212821E
:1007900088EE93E0A0E0B0E084839583A683B783DE
:1007A00084E091E09183808385EC90E09587848755
:1007B00084EC90E09787868780EC90E0918B808B2B
:1007C00081EC90E0938B828B82EC90E0958B848B14
:1007D00086EC90E0978B868B118E128E138E148E82
:1007E0000895EE0FFF1F0590F491E02D0994F89401
:0207F000FFCF39
:1007F20000000000CA012A015701170288016601A0
:100802007A010D0A00506C6174666F726D494F2057
:100812004D756C74692D506C6174666F726D2054E5
:10082200657374004275696C742D696E204C454481
:1008320020284750494F00292077696C6C20626C50
:10084200696E6B206576657279207365636F6E647D
:10085200004C4544204F4E004C4544204F46460034
:00000001FF
